{
  "_format": "hh-sol-artifact-1",
  "contractName": "FrancosionNFT",
  "sourceName": "contracts/FrancosionNFT.sol",
  "abi": [
    {
      "inputs": [],
      "stateMutability": "nonpayable",
      "type": "constructor"
    },
    {
      "anonymous": false,
      "inputs": [
        {
          "indexed": true,
          "internalType": "address",
          "name": "owner",
          "type": "address"
        },
        {
          "indexed": true,
          "internalType": "address",
          "name": "approved",
          "type": "address"
        },
        {
          "indexed": true,
          "internalType": "uint256",
          "name": "tokenId",
          "type": "uint256"
        }
      ],
      "name": "Approval",
      "type": "event"
    },
    {
      "anonymous": false,
      "inputs": [
        {
          "indexed": true,
          "internalType": "address",
          "name": "owner",
          "type": "address"
        },
        {
          "indexed": true,
          "internalType": "address",
          "name": "operator",
          "type": "address"
        },
        {
          "indexed": false,
          "internalType": "bool",
          "name": "approved",
          "type": "bool"
        }
      ],
      "name": "ApprovalForAll",
      "type": "event"
    },
    {
      "anonymous": false,
      "inputs": [
        {
          "indexed": false,
          "internalType": "address",
          "name": "sender",
          "type": "address"
        },
        {
          "indexed": false,
          "internalType": "uint256",
          "name": "tokenId",
          "type": "uint256"
        }
      ],
      "name": "NewFrancosionNFTMinted",
      "type": "event"
    },
    {
      "anonymous": false,
      "inputs": [
        {
          "indexed": true,
          "internalType": "address",
          "name": "from",
          "type": "address"
        },
        {
          "indexed": true,
          "internalType": "address",
          "name": "to",
          "type": "address"
        },
        {
          "indexed": true,
          "internalType": "uint256",
          "name": "tokenId",
          "type": "uint256"
        }
      ],
      "name": "Transfer",
      "type": "event"
    },
    {
      "inputs": [
        {
          "internalType": "address",
          "name": "to",
          "type": "address"
        },
        {
          "internalType": "uint256",
          "name": "tokenId",
          "type": "uint256"
        }
      ],
      "name": "approve",
      "outputs": [],
      "stateMutability": "nonpayable",
      "type": "function"
    },
    {
      "inputs": [
        {
          "internalType": "address",
          "name": "owner",
          "type": "address"
        }
      ],
      "name": "balanceOf",
      "outputs": [
        {
          "internalType": "uint256",
          "name": "",
          "type": "uint256"
        }
      ],
      "stateMutability": "view",
      "type": "function"
    },
    {
      "inputs": [
        {
          "internalType": "uint256",
          "name": "tokenId",
          "type": "uint256"
        }
      ],
      "name": "getApproved",
      "outputs": [
        {
          "internalType": "address",
          "name": "",
          "type": "address"
        }
      ],
      "stateMutability": "view",
      "type": "function"
    },
    {
      "inputs": [
        {
          "internalType": "address",
          "name": "owner",
          "type": "address"
        },
        {
          "internalType": "address",
          "name": "operator",
          "type": "address"
        }
      ],
      "name": "isApprovedForAll",
      "outputs": [
        {
          "internalType": "bool",
          "name": "",
          "type": "bool"
        }
      ],
      "stateMutability": "view",
      "type": "function"
    },
    {
      "inputs": [],
      "name": "mintNFT",
      "outputs": [],
      "stateMutability": "nonpayable",
      "type": "function"
    },
    {
      "inputs": [],
      "name": "name",
      "outputs": [
        {
          "internalType": "string",
          "name": "",
          "type": "string"
        }
      ],
      "stateMutability": "view",
      "type": "function"
    },
    {
      "inputs": [
        {
          "internalType": "uint256",
          "name": "tokenId",
          "type": "uint256"
        }
      ],
      "name": "ownerOf",
      "outputs": [
        {
          "internalType": "address",
          "name": "",
          "type": "address"
        }
      ],
      "stateMutability": "view",
      "type": "function"
    },
    {
      "inputs": [
        {
          "internalType": "address",
          "name": "from",
          "type": "address"
        },
        {
          "internalType": "address",
          "name": "to",
          "type": "address"
        },
        {
          "internalType": "uint256",
          "name": "tokenId",
          "type": "uint256"
        }
      ],
      "name": "safeTransferFrom",
      "outputs": [],
      "stateMutability": "nonpayable",
      "type": "function"
    },
    {
      "inputs": [
        {
          "internalType": "address",
          "name": "from",
          "type": "address"
        },
        {
          "internalType": "address",
          "name": "to",
          "type": "address"
        },
        {
          "internalType": "uint256",
          "name": "tokenId",
          "type": "uint256"
        },
        {
          "internalType": "bytes",
          "name": "_data",
          "type": "bytes"
        }
      ],
      "name": "safeTransferFrom",
      "outputs": [],
      "stateMutability": "nonpayable",
      "type": "function"
    },
    {
      "inputs": [
        {
          "internalType": "address",
          "name": "operator",
          "type": "address"
        },
        {
          "internalType": "bool",
          "name": "approved",
          "type": "bool"
        }
      ],
      "name": "setApprovalForAll",
      "outputs": [],
      "stateMutability": "nonpayable",
      "type": "function"
    },
    {
      "inputs": [
        {
          "internalType": "bytes4",
          "name": "interfaceId",
          "type": "bytes4"
        }
      ],
      "name": "supportsInterface",
      "outputs": [
        {
          "internalType": "bool",
          "name": "",
          "type": "bool"
        }
      ],
      "stateMutability": "view",
      "type": "function"
    },
    {
      "inputs": [],
      "name": "symbol",
      "outputs": [
        {
          "internalType": "string",
          "name": "",
          "type": "string"
        }
      ],
      "stateMutability": "view",
      "type": "function"
    },
    {
      "inputs": [
        {
          "internalType": "uint256",
          "name": "tokenId",
          "type": "uint256"
        }
      ],
      "name": "tokenURI",
      "outputs": [
        {
          "internalType": "string",
          "name": "",
          "type": "string"
        }
      ],
      "stateMutability": "view",
      "type": "function"
    },
    {
      "inputs": [
        {
          "internalType": "address",
          "name": "from",
          "type": "address"
        },
        {
          "internalType": "address",
          "name": "to",
          "type": "address"
        },
        {
          "internalType": "uint256",
          "name": "tokenId",
          "type": "uint256"
        }
      ],
      "name": "transferFrom",
      "outputs": [],
      "stateMutability": "nonpayable",
      "type": "function"
    }
  ],
  "bytecode": "0x60806040523480156200001157600080fd5b506040518060400160405280600e81526020017f4672616e636f73696f6e204e46540000000000000000000000000000000000008152506040518060400160405280600481526020017f464e465400000000000000000000000000000000000000000000000000000000815250816000908051906020019062000096929190620001cf565b508060019080519060200190620000af929190620001cf565b505050620000fd6040518060400160405280601d81526020017f48656c6c6f2c2074686973206973204672616e636f73696f6e204e46540000008152506200010360201b62000b721760201c565b620003ac565b620001a3816040516024016200011a9190620002c0565b6040516020818303038152906040527f41304fac000000000000000000000000000000000000000000000000000000007bffffffffffffffffffffffffffffffffffffffffffffffffffffffff19166020820180517bffffffffffffffffffffffffffffffffffffffffffffffffffffffff8381831617835250505050620001a660201b60201c565b50565b60008151905060006a636f6e736f6c652e6c6f679050602083016000808483855afa5050505050565b828054620001dd9062000336565b90600052602060002090601f0160209004810192826200020157600085556200024d565b82601f106200021c57805160ff19168380011785556200024d565b828001600101855582156200024d579182015b828111156200024c5782518255916020019190600101906200022f565b5b5090506200025c919062000260565b5090565b5b808211156200027b57600081600090555060010162000261565b5090565b60006200028c82620002e4565b620002988185620002ef565b9350620002aa81856020860162000300565b620002b5816200039b565b840191505092915050565b60006020820190508181036000830152620002dc81846200027f565b905092915050565b600081519050919050565b600082825260208201905092915050565b60005b838110156200032057808201518184015260208101905062000303565b8381111562000330576000848401525b50505050565b600060028204905060018216806200034f57607f821691505b602082108114156200036657620003656200036c565b5b50919050565b7f4e487b7100000000000000000000000000000000000000000000000000000000600052602260045260246000fd5b6000601f19601f8301169050919050565b61307280620003bc6000396000f3fe608060405234801561001057600080fd5b50600436106100ea5760003560e01c80636352211e1161008c578063a22cb46511610066578063a22cb46514610249578063b88d4fde14610265578063c87b56dd14610281578063e985e9c5146102b1576100ea565b80636352211e146101cb57806370a08231146101fb57806395d89b411461022b576100ea565b8063095ea7b3116100c8578063095ea7b31461016d57806314f710fe1461018957806323b872dd1461019357806342842e0e146101af576100ea565b806301ffc9a7146100ef57806306fdde031461011f578063081812fc1461013d575b600080fd5b61010960048036038101906101049190611d81565b6102e1565b60405161011691906121b0565b60405180910390f35b6101276103c3565b60405161013491906121cb565b60405180910390f35b61015760048036038101906101529190611dd3565b610455565b6040516101649190612120565b60405180910390f35b61018760048036038101906101829190611d45565b6104da565b005b6101916105f2565b005b6101ad60048036038101906101a89190611c3f565b610698565b005b6101c960048036038101906101c49190611c3f565b6106f8565b005b6101e560048036038101906101e09190611dd3565b610718565b6040516101f29190612120565b60405180910390f35b61021560048036038101906102109190611bda565b6107ca565b604051610222919061242b565b60405180910390f35b610233610882565b60405161024091906121cb565b60405180910390f35b610263600480360381019061025e9190611d09565b610914565b005b61027f600480360381019061027a9190611c8e565b61092a565b005b61029b60048036038101906102969190611dd3565b61098c565b6040516102a891906121cb565b60405180910390f35b6102cb60048036038101906102c69190611c03565b610ade565b6040516102d891906121b0565b60405180910390f35b60007f80ac58cd000000000000000000000000000000000000000000000000000000007bffffffffffffffffffffffffffffffffffffffffffffffffffffffff1916827bffffffffffffffffffffffffffffffffffffffffffffffffffffffff191614806103ac57507f5b5e139f000000000000000000000000000000000000000000000000000000007bffffffffffffffffffffffffffffffffffffffffffffffffffffffff1916827bffffffffffffffffffffffffffffffffffffffffffffffffffffffff1916145b806103bc57506103bb82610c0b565b5b9050919050565b6060600080546103d290612650565b80601f01602080910402602001604051908101604052809291908181526020018280546103fe90612650565b801561044b5780601f106104205761010080835404028352916020019161044b565b820191906000526020600020905b81548152906001019060200180831161042e57829003601f168201915b5050505050905090565b600061046082610c75565b61049f576040517f08c379a00000000000000000000000000000000000000000000000000000000081526004016104969061238b565b60405180910390fd5b6004600083815260200190815260200160002060009054906101000a900473ffffffffffffffffffffffffffffffffffffffff169050919050565b60006104e582610718565b90508073ffffffffffffffffffffffffffffffffffffffff168373ffffffffffffffffffffffffffffffffffffffff161415610556576040517f08c379a000000000000000000000000000000000000000000000000000000000815260040161054d906123eb565b60405180910390fd5b8073ffffffffffffffffffffffffffffffffffffffff16610575610ce1565b73ffffffffffffffffffffffffffffffffffffffff1614806105a457506105a38161059e610ce1565b610ade565b5b6105e3576040517f08c379a00000000000000000000000000000000000000000000000000000000081526004016105da906122cb565b60405180910390fd5b6105ed8383610ce9565b505050565b60006105fe6007610da2565b905061060a3382610db0565b61062f816040518061038001604052806103418152602001612cd56103419139610dce565b6106396007610e42565b61065c604051806060016040528060278152602001613016602791398233610e58565b7fe88c7843c41e34ddb68949d3738f3c28c324134f9e2f4e4e83d0e76740e80878338260405161068d929190612187565b60405180910390a150565b6106a96106a3610ce1565b82610ef7565b6106e8576040517f08c379a00000000000000000000000000000000000000000000000000000000081526004016106df9061240b565b60405180910390fd5b6106f3838383610fd5565b505050565b6107138383836040518060200160405280600081525061092a565b505050565b6000806002600084815260200190815260200160002060009054906101000a900473ffffffffffffffffffffffffffffffffffffffff169050600073ffffffffffffffffffffffffffffffffffffffff168173ffffffffffffffffffffffffffffffffffffffff1614156107c1576040517f08c379a00000000000000000000000000000000000000000000000000000000081526004016107b89061230b565b60405180910390fd5b80915050919050565b60008073ffffffffffffffffffffffffffffffffffffffff168273ffffffffffffffffffffffffffffffffffffffff16141561083b576040517f08c379a0000000000000000000000000000000000000000000000000000000008152600401610832906122eb565b60405180910390fd5b600360008373ffffffffffffffffffffffffffffffffffffffff1673ffffffffffffffffffffffffffffffffffffffff168152602001908152602001600020549050919050565b60606001805461089190612650565b80601f01602080910402602001604051908101604052809291908181526020018280546108bd90612650565b801561090a5780601f106108df5761010080835404028352916020019161090a565b820191906000526020600020905b8154815290600101906020018083116108ed57829003601f168201915b5050505050905090565b61092661091f610ce1565b8383611231565b5050565b61093b610935610ce1565b83610ef7565b61097a576040517f08c379a00000000000000000000000000000000000000000000000000000000081526004016109719061240b565b60405180910390fd5b6109868484848461139e565b50505050565b606061099782610c75565b6109d6576040517f08c379a00000000000000000000000000000000000000000000000000000000081526004016109cd9061236b565b60405180910390fd5b60006006600084815260200190815260200160002080546109f690612650565b80601f0160208091040260200160405190810160405280929190818152602001828054610a2290612650565b8015610a6f5780601f10610a4457610100808354040283529160200191610a6f565b820191906000526020600020905b815481529060010190602001808311610a5257829003601f168201915b505050505090506000610a806113fa565b9050600081511415610a96578192505050610ad9565b600082511115610acb578082604051602001610ab39291906120fc565b60405160208183030381529060405292505050610ad9565b610ad484611411565b925050505b919050565b6000600560008473ffffffffffffffffffffffffffffffffffffffff1673ffffffffffffffffffffffffffffffffffffffff16815260200190815260200160002060008373ffffffffffffffffffffffffffffffffffffffff1673ffffffffffffffffffffffffffffffffffffffff16815260200190815260200160002060009054906101000a900460ff16905092915050565b610c0881604051602401610b8691906121cb565b6040516020818303038152906040527f41304fac000000000000000000000000000000000000000000000000000000007bffffffffffffffffffffffffffffffffffffffffffffffffffffffff19166020820180517bffffffffffffffffffffffffffffffffffffffffffffffffffffffff83818316178352505050506114b8565b50565b60007f01ffc9a7000000000000000000000000000000000000000000000000000000007bffffffffffffffffffffffffffffffffffffffffffffffffffffffff1916827bffffffffffffffffffffffffffffffffffffffffffffffffffffffff1916149050919050565b60008073ffffffffffffffffffffffffffffffffffffffff166002600084815260200190815260200160002060009054906101000a900473ffffffffffffffffffffffffffffffffffffffff1673ffffffffffffffffffffffffffffffffffffffff1614159050919050565b600033905090565b816004600083815260200190815260200160002060006101000a81548173ffffffffffffffffffffffffffffffffffffffff021916908373ffffffffffffffffffffffffffffffffffffffff160217905550808273ffffffffffffffffffffffffffffffffffffffff16610d5c83610718565b73ffffffffffffffffffffffffffffffffffffffff167f8c5be1e5ebec7d5bd14f71427d1e84f3dd0314c0f7b2291e5b200ac8c7c3b92560405160405180910390a45050565b600081600001549050919050565b610dca8282604051806020016040528060008152506114e1565b5050565b610dd782610c75565b610e16576040517f08c379a0000000000000000000000000000000000000000000000000000000008152600401610e0d9061232b565b60405180910390fd5b80600660008481526020019081526020016000209080519060200190610e3d929190611a66565b505050565b6001816000016000828254019250508190555050565b610ef2838383604051602401610e70939291906121ed565b6040516020818303038152906040527fe3849f79000000000000000000000000000000000000000000000000000000007bffffffffffffffffffffffffffffffffffffffffffffffffffffffff19166020820180517bffffffffffffffffffffffffffffffffffffffffffffffffffffffff83818316178352505050506114b8565b505050565b6000610f0282610c75565b610f41576040517f08c379a0000000000000000000000000000000000000000000000000000000008152600401610f38906122ab565b60405180910390fd5b6000610f4c83610718565b90508073ffffffffffffffffffffffffffffffffffffffff168473ffffffffffffffffffffffffffffffffffffffff161480610fbb57508373ffffffffffffffffffffffffffffffffffffffff16610fa384610455565b73ffffffffffffffffffffffffffffffffffffffff16145b80610fcc5750610fcb8185610ade565b5b91505092915050565b8273ffffffffffffffffffffffffffffffffffffffff16610ff582610718565b73ffffffffffffffffffffffffffffffffffffffff161461104b576040517f08c379a0000000000000000000000000000000000000000000000000000000008152600401611042906123ab565b60405180910390fd5b600073ffffffffffffffffffffffffffffffffffffffff168273ffffffffffffffffffffffffffffffffffffffff1614156110bb576040517f08c379a00000000000000000000000000000000000000000000000000000000081526004016110b29061226b565b60405180910390fd5b6110c683838361153c565b6110d1600082610ce9565b6001600360008573ffffffffffffffffffffffffffffffffffffffff1673ffffffffffffffffffffffffffffffffffffffff16815260200190815260200160002060008282546111219190612566565b925050819055506001600360008473ffffffffffffffffffffffffffffffffffffffff1673ffffffffffffffffffffffffffffffffffffffff168152602001908152602001600020600082825461117891906124df565b92505081905550816002600083815260200190815260200160002060006101000a81548173ffffffffffffffffffffffffffffffffffffffff021916908373ffffffffffffffffffffffffffffffffffffffff160217905550808273ffffffffffffffffffffffffffffffffffffffff168473ffffffffffffffffffffffffffffffffffffffff167fddf252ad1be2c89b69c2b068fc378daa952ba7f163c4a11628f55a4df523b3ef60405160405180910390a4505050565b8173ffffffffffffffffffffffffffffffffffffffff168373ffffffffffffffffffffffffffffffffffffffff1614156112a0576040517f08c379a00000000000000000000000000000000000000000000000000000000081526004016112979061228b565b60405180910390fd5b80600560008573ffffffffffffffffffffffffffffffffffffffff1673ffffffffffffffffffffffffffffffffffffffff16815260200190815260200160002060008473ffffffffffffffffffffffffffffffffffffffff1673ffffffffffffffffffffffffffffffffffffffff16815260200190815260200160002060006101000a81548160ff0219169083151502179055508173ffffffffffffffffffffffffffffffffffffffff168373ffffffffffffffffffffffffffffffffffffffff167f17307eab39ab6107e8899845ad3d59bd9653f200f220920489ca2b5937696c318360405161139191906121b0565b60405180910390a3505050565b6113a9848484610fd5565b6113b584848484611541565b6113f4576040517f08c379a00000000000000000000000000000000000000000000000000000000081526004016113eb9061222b565b60405180910390fd5b50505050565b606060405180602001604052806000815250905090565b606061141c82610c75565b61145b576040517f08c379a0000000000000000000000000000000000000000000000000000000008152600401611452906123cb565b60405180910390fd5b60006114656113fa565b9050600081511161148557604051806020016040528060008152506114b0565b8061148f846116d8565b6040516020016114a09291906120fc565b6040516020818303038152906040525b915050919050565b60008151905060006a636f6e736f6c652e6c6f679050602083016000808483855afa5050505050565b6114eb8383611885565b6114f86000848484611541565b611537576040517f08c379a000000000000000000000000000000000000000000000000000000000815260040161152e9061222b565b60405180910390fd5b505050565b505050565b60006115628473ffffffffffffffffffffffffffffffffffffffff16611a53565b156116cb578373ffffffffffffffffffffffffffffffffffffffff1663150b7a0261158b610ce1565b8786866040518563ffffffff1660e01b81526004016115ad949392919061213b565b602060405180830381600087803b1580156115c757600080fd5b505af19250505080156115f857506040513d601f19601f820116820180604052508101906115f59190611daa565b60015b61167b573d8060008114611628576040519150601f19603f3d011682016040523d82523d6000602084013e61162d565b606091505b50600081511415611673576040517f08c379a000000000000000000000000000000000000000000000000000000000815260040161166a9061222b565b60405180910390fd5b805181602001fd5b63150b7a0260e01b7bffffffffffffffffffffffffffffffffffffffffffffffffffffffff1916817bffffffffffffffffffffffffffffffffffffffffffffffffffffffff1916149150506116d0565b600190505b949350505050565b60606000821415611720576040518060400160405280600181526020017f30000000000000000000000000000000000000000000000000000000000000008152509050611880565b600082905060005b6000821461175257808061173b906126b3565b915050600a8261174b9190612535565b9150611728565b60008167ffffffffffffffff811115611794577f4e487b7100000000000000000000000000000000000000000000000000000000600052604160045260246000fd5b6040519080825280601f01601f1916602001820160405280156117c65781602001600182028036833780820191505090505b5090505b60008514611879576001826117df9190612566565b9150600a856117ee91906126fc565b60306117fa91906124df565b60f81b818381518110611836577f4e487b7100000000000000000000000000000000000000000000000000000000600052603260045260246000fd5b60200101907effffffffffffffffffffffffffffffffffffffffffffffffffffffffffffff1916908160001a905350600a856118729190612535565b94506117ca565b8093505050505b919050565b600073ffffffffffffffffffffffffffffffffffffffff168273ffffffffffffffffffffffffffffffffffffffff1614156118f5576040517f08c379a00000000000000000000000000000000000000000000000000000000081526004016118ec9061234b565b60405180910390fd5b6118fe81610c75565b1561193e576040517f08c379a00000000000000000000000000000000000000000000000000000000081526004016119359061224b565b60405180910390fd5b61194a6000838361153c565b6001600360008473ffffffffffffffffffffffffffffffffffffffff1673ffffffffffffffffffffffffffffffffffffffff168152602001908152602001600020600082825461199a91906124df565b92505081905550816002600083815260200190815260200160002060006101000a81548173ffffffffffffffffffffffffffffffffffffffff021916908373ffffffffffffffffffffffffffffffffffffffff160217905550808273ffffffffffffffffffffffffffffffffffffffff16600073ffffffffffffffffffffffffffffffffffffffff167fddf252ad1be2c89b69c2b068fc378daa952ba7f163c4a11628f55a4df523b3ef60405160405180910390a45050565b600080823b905060008111915050919050565b828054611a7290612650565b90600052602060002090601f016020900481019282611a945760008555611adb565b82601f10611aad57805160ff1916838001178555611adb565b82800160010185558215611adb579182015b82811115611ada578251825591602001919060010190611abf565b5b509050611ae89190611aec565b5090565b5b80821115611b05576000816000905550600101611aed565b5090565b6000611b1c611b178461246b565b612446565b905082815260208101848484011115611b3457600080fd5b611b3f84828561260e565b509392505050565b600081359050611b5681612c78565b92915050565b600081359050611b6b81612c8f565b92915050565b600081359050611b8081612ca6565b92915050565b600081519050611b9581612ca6565b92915050565b600082601f830112611bac57600080fd5b8135611bbc848260208601611b09565b91505092915050565b600081359050611bd481612cbd565b92915050565b600060208284031215611bec57600080fd5b6000611bfa84828501611b47565b91505092915050565b60008060408385031215611c1657600080fd5b6000611c2485828601611b47565b9250506020611c3585828601611b47565b9150509250929050565b600080600060608486031215611c5457600080fd5b6000611c6286828701611b47565b9350506020611c7386828701611b47565b9250506040611c8486828701611bc5565b9150509250925092565b60008060008060808587031215611ca457600080fd5b6000611cb287828801611b47565b9450506020611cc387828801611b47565b9350506040611cd487828801611bc5565b925050606085013567ffffffffffffffff811115611cf157600080fd5b611cfd87828801611b9b565b91505092959194509250565b60008060408385031215611d1c57600080fd5b6000611d2a85828601611b47565b9250506020611d3b85828601611b5c565b9150509250929050565b60008060408385031215611d5857600080fd5b6000611d6685828601611b47565b9250506020611d7785828601611bc5565b9150509250929050565b600060208284031215611d9357600080fd5b6000611da184828501611b71565b91505092915050565b600060208284031215611dbc57600080fd5b6000611dca84828501611b86565b91505092915050565b600060208284031215611de557600080fd5b6000611df384828501611bc5565b91505092915050565b611e058161259a565b82525050565b611e14816125ac565b82525050565b6000611e258261249c565b611e2f81856124b2565b9350611e3f81856020860161261d565b611e48816127e9565b840191505092915050565b6000611e5e826124a7565b611e6881856124c3565b9350611e7881856020860161261d565b611e81816127e9565b840191505092915050565b6000611e97826124a7565b611ea181856124d4565b9350611eb181856020860161261d565b80840191505092915050565b6000611eca6032836124c3565b9150611ed5826127fa565b604082019050919050565b6000611eed601c836124c3565b9150611ef882612849565b602082019050919050565b6000611f106024836124c3565b9150611f1b82612872565b604082019050919050565b6000611f336019836124c3565b9150611f3e826128c1565b602082019050919050565b6000611f56602c836124c3565b9150611f61826128ea565b604082019050919050565b6000611f796038836124c3565b9150611f8482612939565b604082019050919050565b6000611f9c602a836124c3565b9150611fa782612988565b604082019050919050565b6000611fbf6029836124c3565b9150611fca826129d7565b604082019050919050565b6000611fe2602e836124c3565b9150611fed82612a26565b604082019050919050565b60006120056020836124c3565b915061201082612a75565b602082019050919050565b60006120286031836124c3565b915061203382612a9e565b604082019050919050565b600061204b602c836124c3565b915061205682612aed565b604082019050919050565b600061206e6029836124c3565b915061207982612b3c565b604082019050919050565b6000612091602f836124c3565b915061209c82612b8b565b604082019050919050565b60006120b46021836124c3565b91506120bf82612bda565b604082019050919050565b60006120d76031836124c3565b91506120e282612c29565b604082019050919050565b6120f681612604565b82525050565b60006121088285611e8c565b91506121148284611e8c565b91508190509392505050565b60006020820190506121356000830184611dfc565b92915050565b60006080820190506121506000830187611dfc565b61215d6020830186611dfc565b61216a60408301856120ed565b818103606083015261217c8184611e1a565b905095945050505050565b600060408201905061219c6000830185611dfc565b6121a960208301846120ed565b9392505050565b60006020820190506121c56000830184611e0b565b92915050565b600060208201905081810360008301526121e58184611e53565b905092915050565b600060608201905081810360008301526122078186611e53565b905061221660208301856120ed565b6122236040830184611dfc565b949350505050565b6000602082019050818103600083015261224481611ebd565b9050919050565b6000602082019050818103600083015261226481611ee0565b9050919050565b6000602082019050818103600083015261228481611f03565b9050919050565b600060208201905081810360008301526122a481611f26565b9050919050565b600060208201905081810360008301526122c481611f49565b9050919050565b600060208201905081810360008301526122e481611f6c565b9050919050565b6000602082019050818103600083015261230481611f8f565b9050919050565b6000602082019050818103600083015261232481611fb2565b9050919050565b6000602082019050818103600083015261234481611fd5565b9050919050565b6000602082019050818103600083015261236481611ff8565b9050919050565b600060208201905081810360008301526123848161201b565b9050919050565b600060208201905081810360008301526123a48161203e565b9050919050565b600060208201905081810360008301526123c481612061565b9050919050565b600060208201905081810360008301526123e481612084565b9050919050565b60006020820190508181036000830152612404816120a7565b9050919050565b60006020820190508181036000830152612424816120ca565b9050919050565b600060208201905061244060008301846120ed565b92915050565b6000612450612461565b905061245c8282612682565b919050565b6000604051905090565b600067ffffffffffffffff821115612486576124856127ba565b5b61248f826127e9565b9050602081019050919050565b600081519050919050565b600081519050919050565b600082825260208201905092915050565b600082825260208201905092915050565b600081905092915050565b60006124ea82612604565b91506124f583612604565b9250827fffffffffffffffffffffffffffffffffffffffffffffffffffffffffffffffff0382111561252a5761252961272d565b5b828201905092915050565b600061254082612604565b915061254b83612604565b92508261255b5761255a61275c565b5b828204905092915050565b600061257182612604565b915061257c83612604565b92508282101561258f5761258e61272d565b5b828203905092915050565b60006125a5826125e4565b9050919050565b60008115159050919050565b60007fffffffff0000000000000000000000000000000000000000000000000000000082169050919050565b600073ffffffffffffffffffffffffffffffffffffffff82169050919050565b6000819050919050565b82818337600083830152505050565b60005b8381101561263b578082015181840152602081019050612620565b8381111561264a576000848401525b50505050565b6000600282049050600182168061266857607f821691505b6020821081141561267c5761267b61278b565b5b50919050565b61268b826127e9565b810181811067ffffffffffffffff821117156126aa576126a96127ba565b5b80604052505050565b60006126be82612604565b91507fffffffffffffffffffffffffffffffffffffffffffffffffffffffffffffffff8214156126f1576126f061272d565b5b600182019050919050565b600061270782612604565b915061271283612604565b9250826127225761272161275c565b5b828206905092915050565b7f4e487b7100000000000000000000000000000000000000000000000000000000600052601160045260246000fd5b7f4e487b7100000000000000000000000000000000000000000000000000000000600052601260045260246000fd5b7f4e487b7100000000000000000000000000000000000000000000000000000000600052602260045260246000fd5b7f4e487b7100000000000000000000000000000000000000000000000000000000600052604160045260246000fd5b6000601f19601f8301169050919050565b7f4552433732313a207472616e7366657220746f206e6f6e20455243373231526560008201527f63656976657220696d706c656d656e7465720000000000000000000000000000602082015250565b7f4552433732313a20746f6b656e20616c7265616479206d696e74656400000000600082015250565b7f4552433732313a207472616e7366657220746f20746865207a65726f2061646460008201527f7265737300000000000000000000000000000000000000000000000000000000602082015250565b7f4552433732313a20617070726f766520746f2063616c6c657200000000000000600082015250565b7f4552433732313a206f70657261746f7220717565727920666f72206e6f6e657860008201527f697374656e7420746f6b656e0000000000000000000000000000000000000000602082015250565b7f4552433732313a20617070726f76652063616c6c6572206973206e6f74206f7760008201527f6e6572206e6f7220617070726f76656420666f7220616c6c0000000000000000602082015250565b7f4552433732313a2062616c616e636520717565727920666f7220746865207a6560008201527f726f206164647265737300000000000000000000000000000000000000000000602082015250565b7f4552433732313a206f776e657220717565727920666f72206e6f6e657869737460008201527f656e7420746f6b656e0000000000000000000000000000000000000000000000602082015250565b7f45524337323155524953746f726167653a2055524920736574206f66206e6f6e60008201527f6578697374656e7420746f6b656e000000000000000000000000000000000000602082015250565b7f4552433732313a206d696e7420746f20746865207a65726f2061646472657373600082015250565b7f45524337323155524953746f726167653a2055524920717565727920666f722060008201527f6e6f6e6578697374656e7420746f6b656e000000000000000000000000000000602082015250565b7f4552433732313a20617070726f76656420717565727920666f72206e6f6e657860008201527f697374656e7420746f6b656e0000000000000000000000000000000000000000602082015250565b7f4552433732313a207472616e73666572206f6620746f6b656e2074686174206960008201527f73206e6f74206f776e0000000000000000000000000000000000000000000000602082015250565b7f4552433732314d657461646174613a2055524920717565727920666f72206e6f60008201527f6e6578697374656e7420746f6b656e0000000000000000000000000000000000602082015250565b7f4552433732313a20617070726f76616c20746f2063757272656e74206f776e6560008201527f7200000000000000000000000000000000000000000000000000000000000000602082015250565b7f4552433732313a207472616e736665722063616c6c6572206973206e6f74206f60008201527f776e6572206e6f7220617070726f766564000000000000000000000000000000602082015250565b612c818161259a565b8114612c8c57600080fd5b50565b612c98816125ac565b8114612ca357600080fd5b50565b612caf816125b8565b8114612cba57600080fd5b50565b612cc681612604565b8114612cd157600080fd5b5056fe646174613a6170706c69636174696f6e2f6a736f6e3b6261736536342c65776f6749434167496d3568625755694f694169526e4a68626d4e7663326c766269424f526c51694c416f6749434167496d526c63324e796158423061573975496a6f67496b6c6e596d386751584a304c4342686269424a5a324a7649455634644756755a47566b49475a6862576c736553426c59585270626d63754969774b4943416749434a706257466e5a53493649434a6b595852684f6d6c745957646c4c334e325a79743462577737596d467a5a5459304c464249546a4a6165554930596c643464574e364d476c685346497759305276646b777a5a444e6b6554557a54586b31646d4e7459335a4e616b463354554d35656d527459326c4a53454a35576c684f62474e75576d785257453533576c644f4d465674526a4268567a67355357356f546d46584e56705556327831535563786246705955576c4a53467077576c686b5132497a5a7a6c4a616b466e54554e42656b35555157644e656c563353576f3053306c445157644a524868365a456873633170554e48565a62555a36576c4e434e306c48576e4269523363325355686b62324659556d785065554a74596a49314d457858576d68695632787a5a5652765a324d79566e6c6856316b3353556461646d4a755558526a4d6d7732576c52765a303155556e646c52484e6e5a6c5233646d4d7a556a56695231557251326c425a306c445154686a62565a715a454e434d324658556a42685244427054565242643070545357646852315a77576a4a6f4d4642545358684e5245467353576c436257465865484e5155307070596b6447616d46355357644d656a524c53554e425a306c4565444261574767775355686e4f556c715658644b55306c6e5a565177615535555157784a61554a71596b6447656d4e364d476c5a62555a36576c4e4a5a3170484f585268567a566f596d355264466c74526e706156336877596d31564f556c744d58426152314a7a576c4e4a5a325248566a526b517a466f596d314f6232497a53546c4a62544677576b64536331705453537453626b706f596d314f646d4d7962485a6961554a50556d78524f45777a556d786c5346457251327033646d4d7a576d35515a7a303949677039416e204e4654207769746820494420257320686173206265656e206d696e74656420746f202573a2646970667358221220193f1bb9334b631302a5057f7f50bb25a3f27a0dfdd919106a03108c2743dc6564736f6c63430008040033",
  "linkReferences": {},
  "deployedLinkReferences": {}
}